:020000040800F2
:1000000000040020917200087174000871740008E7
:10001000717400087174000871740008717400082C
:10002000717400087174000871740008A1740008EC
:1000300071740008717400087174000881750008FB
:1000400071740008618C000871740008618D0008EB
:100050007174000871740008118A0008418A000850
:10006000718A0008A18A0008D18A0008717400080A
:1000700071740008717400087174000871740008CC
:1000800071740008717400087174000871740008BC
:10009000717400087174000871740008018B000805
:1000A000717400087174000871740008717400089C
:1000B000717400087174000871740008717400088C
:1000C000717400087174000871740008717400087C
:1000D000717400087174000871910008717400084F
:1000E000A18B000871740008A18C000871740008CD
:1000F000717400087174000871740008717400084C
:10010000717400087174000871740008717400083B
:10011000717400087174000871740008717400082B
:10012000717400087174000871740008717400081B
:100130007174000871740008E18C00087174000883
:1001400071740008717400087174000871740008FB
:1001500071740008717400087174000871740008EB
:1001600071740008717400087174000871740008DB
:10017000218D000871740008717400087174000802
:0801800071740008717400089D
:1001900010B582B008F034F907F072FA41F6D000D9
:1001A00049F6D1734022C0F6000300244FF4987141
:1001B000C2F20000009407F083FE41F29430C2F2D4
:1001C0000000214608F09CFF41F2983040F6DC51D7
:1001D000C2F20000C2F2000108F042FA09F0B8F9D8
:1001E0004AF6606041F21841C0F60000C2F2000118
:1001F0004FF49662402309F0B3F9C82007F0A8FE37
:10020000FBE700BFAFF30080AFF30080AFF30080E7
:1002100070B540F60004C2F2000482B006462568BC
:10022000296C29B1304602B0BDE8704000F010B82A
:100230001A20019100F04CF8236801991A222864D1
:10024000186C00F015FB2368196CEBE70000000048
:100250002DE9F043054682694AF280290369C0F618
:100260000009D0F80CC087B0D5F808E00C466F68DC
:1002700009F118082E684AF670616D6902EB4202B6
:1002800003EB43032046C0F600014A44434405F50E
:10029000EC65CDF800C00C35CDF804E0029703966C
:1002A000049501F057F8204607B0BDE8F08300BF81
:1002B00000210A2201F0DCBA00220A2301F028BA48
:1002C000002200F051BE00BF00000000000000004E
:1002D00040F600030146C2F20003186800F008B8B7
:1002E00040F600030146C2F20003186803F0DABDCD
:1002F0002DE9F04F01F10B04162C83B0064630D9DE
:1003000024F00704E30F8C422CBF194643F001018F
:1003100000292FD1304600F0F3FFB4F5FC7F2DD239
:100320004FEAD40E40F6F405C2F2000505EBCE020A
:10033000D368934200F023825C6803F10807DA680F
:10034000304624F0030499681B195C68CA6044F0C5
:10035000010491605C6000F0D5FF384603B0BDE851
:10036000F08F002310248C422CBF194643F001016A
:100370000029CFD00C2300273360EEE75FEA542E2C
:1003800004BF4FEAD40E4FEACE0140F08C8040F615
:10039000F405C2F200056918CF68B94206D10DE034
:1003A000002A80F28181FF68B94207D07B6823F080
:1003B00003031A1B0F2AF3DD0EF1FF3E0EF1010EAF
:1003C00040F6F4002F69C2F2000000F108029742E3
:1003D00008BF436826D07B6823F0030CC4EB0C03F2
:1003E0000F2B00F39C81002B4261026180F295800B
:1003F000BCF5007F80F073814FEADC0C4FF0010800
:10040000436800EBCC014FEAAC0C08FA0CF8F96039
:10041000D1F808C048EA03034360C7F808C0CCF825
:100420000C708F6001274FEAAE0107FA01F79F4277
:100430007ED83B4206D12EF0030E7F000EF1040E53
:100440003B42FAD005EBCE09F046CC46DCF80C0076
:10045000844507D174E1002B80F29B81C0688445FC
:1004600000F06E81416821F003010B1B0F2BF2DDC0
:1004700007460119D0F80CE044F0010857F8084F7E
:1004800043F0010CC0F804803046C1F804C0C4F841
:100490000CE0CEF8084069612961CA608A60CB50DF
:1004A00000F030FF59E7BEF1040F9EBF4FEA941EE3
:1004B0000EF1380E4FEACE017FF669AFBEF1140F90
:1004C0009CBF0EF15B0E4FEACE017FF660AFBEF12E
:1004D000540F9EBF4FEA143E0EF16E0E4FEACE014E
:1004E0007FF655AFBEF5AA7F9EBF4FEAD43E0EF110
:1004F000770E4FEACE017FF64AAF40F254539E4545
:1005000095BF4FEA944E4FF47C710EF17C0E4FF084
:100510007E0E98BF4FEACE0139E707EB0C03304659
:1005200008375A6842F001025A6000F0EBFE14E707
:10053000AF6840F6F403C2F200037A6822F00308C1
:100540004445C4EB080294BF002101210F2AD8BF03
:1005500041F00101002900F0B58040F6E85AD3F8D7
:100560000824C2F2000A0132DAF80030234408BF3E
:1005700003F1100B06D003F580530F3323F47E6391
:1005800023F01F0B3046594608F012FF421C8146EB
:1005900000F0318107EB0803834200F20681DAF8AC
:1005A00004204B455A44CAF8042000F03181D5F8A4
:1005B000080440F6F401C2F200010130304617BFD2
:1005C000C3EB0903C1F80894D218CAF8042019F043
:1005D00007031FBFC3F10802C3F58053914403F121
:1005E000080209EB0B0308BF4FF480521B051B0DDB
:1005F000C3EB020B594608F0DBFE431C00F01D81E3
:10060000C9EB0001594441F00101DAF80420AF427E
:1006100040F6E853C5F808905A44C2F20003C9F8FE
:100620000410CAF8042019D0B8F10F0F40F2DD8091
:10063000A8F10C01D7F804C021F007014FF0050E16
:1006400078180F290CF0010C41EA0C0CC7F804C013
:10065000C0F804E0C0F808E000F2E68040F6E85395
:10066000DAF82C10C2F20003AF688A42DAF83010D0
:1006700088BFDA6240F6E853C2F200038A4288BFBC
:100680001A637B6823F003039C42C4EB030294BF0C
:10069000002301230F2AD8BF43F0010393B1304652
:1006A000002700F02FFE58E6FB18FA68B9683046BC
:1006B0005C680837CA6044F0010491605C6000F037
:1006C00021FE4AE63B1942F0010244F001043046A3
:1006D0007C6008375A60AB6000F014FE3DE64FEADC
:1006E0005C23042B5CD9142B78D85B33D8002818F2
:1006F00040F6F408C2F200088168814203D160E04C
:100700008968884204D04B6823F003039C45F7D3E3
:10071000C8686B68F860B960CF60876082E6391995
:1007200043F00105416144F00104016130467C6001
:100730000837CA608A604D60CB5000F0E3FD0CE6DC
:1007400008F101080CF1080C18F0030F7FF47EAEDD
:100750004B461EF0030FA3F108010EF1FF3E79D0C6
:100760001B688B42F5D06B687F009F423FF6E0AE7E
:10077000002F3FF4DDAE1F4271D0C64662E603F1A2
:1007800008025B699A4208BF0EF1020E3FF418AEF0
:10079000D2E507464318C268304657F8081FD4E52B
:1007A0004FEA9C133833D800A1E7AF4240F6F40279
:1007B000C2F200023FF4F3AE97687B6823F00303B4
:1007C00062E74FF00109D8F804C09B10084609FA07
:1007D00003F343EA0C03C8F804309BE7542B0FD80B
:1007E0004FEA1C336E33D80081E701234F46C9F826
:1007F0000430002348E7AF687B6823F0030343E736
:10080000B3F5AA7F1DD84FEADC337733D8006EE703
:100810001905090D00297FF4CAAEAB680BEB08017E
:1008200041F00101596019E7304607F108010193D1
:1008300003F038FB019B5A6810E701214FF0000BD1
:10084000E3E640F254518B420DD84FEA9C437C338F
:10085000D8004CE76B6823EA07036B6084E77F00EE
:1008600008F1040887E74FF47C707E233FE700BF60
:10087000032AC9B270B407D822B10023C15401338E
:100880009342FBD170BC704785070244034603D0F6
:1008900003F8011B9C07FBD10C02D51A641826042F
:1008A0003F2D34441ADD1C605C609C60DC601C6180
:1008B0005C619C61DC611C625C629C62DC621C634A
:1008C0005C639C63DC634033D51A3F2DEBDC05E0B1
:1008D0001C605C609C60DC601033D51A0F2DF7DC67
:1008E00002E043F8044BD51A032DFADC9342C9D237
:1008F00003F8011B9342FBD1C4E700BF00000000D6
:1009000001682DE9F0473B2982B0044698BF416851
:1009100000F2F4803B2998BFA16800F2DD8017291E
:1009200000F2C88021690B29D8BF636900F3B08049
:100930001C269F070ED148F21F52D817C5F2EB12A2
:1009400082FB03651D26C0EB6510642505FB103096
:10095000002875D0E368002B40F386804AF2C02758
:1009600048F21F5CC0F600074FF00008C5F2EB1C10
:100970004FF064094FF4C87A4A1C07EB810009E084
:1009800005680C2A2261C5EB0303E3600ED0013138
:100990000132043001290CBF354605689D424CDA0E
:1009A0000129EDD19B1B2261E360F0E761691C2600
:1009B000C4F810804A1C6261900716D18CFB026556
:1009C000D0171D26C0EB651009FB10226AB901F58E
:1009D000EC610D318CFB0106CA17C2EBE6160AFB6F
:1009E000161100290CBF1D261C260021C4E76269D0
:1009F000013A6261960740F0938085FB0261D61749
:100A0000C6EB61111D2607FB112169B902F5EC62E5
:100A10000C3285FB0216D117C1EBE6110CFB11223B
:100A2000002A0CBF1D261C260B210A4650F8222046
:100A30009B18002B23DD2161E36002B0BDE8F08745
:100A400003F5EC630C3382FB0302D817C0EBE21210
:100A50004FF4C87000FB1233002B0CBF1D261C2660
:100A6000E368002B3FF77AAF48F21F554AF2C020E7
:100A7000C5F2EB1564274FF4C87CC0F600004A1E8F
:100A80000029B4D0012A114608BF3246CED1CFE7A3
:100A90000C22684602F074F901996269009B0029F2
:100AA000216113446361BFF643AF0C31013B216107
:100AB00063613DE71822684602F062F9019BE16834
:100AC000009A002BA3600A44E260BFF62BAF1833F4
:100AD000013AA360E26025E73C22684602F050F943
:100AE000019BA168009A002B63601144A160BFF6CE
:100AF00016AF3C3301396360A16010E73C226846C1
:100B000002F03EF9019B6168009A002B23601144BA
:100B10006160BFF6FFAE3C33013923606160F9E6E6
:100B20000B211C260A4681E72DE9F04F83B00446CD
:100B300003F086FA05462046FFF7E2FE21694AF2F5
:100B4000C023E268C0F60003206803EB8103A668B7
:100B5000013A01291B6B8DE841001A44D4F804A026
:100B6000616902DD880700F0D88001F51C5344F666
:100B700020601033E261834288BF4FF0FF3000F203
:100B8000C980462957DC00F08680452900F01E8187
:100B900048F21F574523C5F2EB174FF0640BA946E7
:100BA00087FB036CDE1713F0030F40F26D101AD1B0
:100BB00003F5EC65C6EB6C160C354FF4B7700BFB08
:100BC000163687FB05C84FEAE57CCCEBE81C56B926
:100BD0004FF4C87000FB1C5C40F26D10BCF1000FBC
:100BE00008BF4FF4B770013B121A8B42D8D18B0764
:100BF0004D4640F0EB8048F21F53C817C5F2EB1387
:100C000083FB0176C0EB6610642606FB101070B9FA
:100C100001F5EC600C3083FB00C3C617C6EBE31391
:100C20004FF4C87606FB1300002840F0CF804FF445
:100C3000B773D21A2FE048F21F574623C5F2EB17BD
:100C40004FF0640BA946DE1713F0030F87FB030C6C
:100C500040F26D101AD103F5EC65C6EB6C160C353D
:100C60004FF4B7700BFB163687FB05C84FEAE57CDF
:100C7000CCEBE81C56B94FF4C87000FB1C5C40F28A
:100C80006D10BCF1000F08BF4FF4B770013312189C
:100C90008B42D8D14D4642F29346101DC9F24926E7
:100CA000C71786FB00C31B18C7EBA303C3EBC30323
:100CB000C31AA361002B75DBCAEB0A1A019E4FF41D
:100CC000616740F620634FEA8A0AC2F200034FF4DC
:100CD000A340D4F8208007FB06A7009EC0F20100C5
:100CE0001B68B8F1010FA8BF4FF00108F71900FB0E
:100CF000027743B101F5EC606B680C3083421CD085
:100D000000F06EF8C8B94646012E0CBFE86B286AA1
:100D10002662381803B0BDE8F08F48F21F53C81799
:100D2000C5F2EB1383FB0176C0EB6610642606FB6D
:100D30001010002839D0013217E7AB6B286AEA6B34
:100D4000191AD5F81CC08F42C2EB0303B4BF0026AA
:100D500001269F42ACBF002306F00103002BD2D135
:100D6000C2EB0C0C2B686745B4BF4FF0000C4FF082
:100D7000010C7BB38F42ACBF00260CF00106B8F12A
:100D8000000FC1DB86EA0808B8F1010FBCD1821A56
:100D900006B952422368BF1820469A182260FFF70E
:100DA000AFFDB1E70733A36186E701F5EC600C30D6
:100DB00083FB00C3C617C6EBE3134FF4C87606FBEC
:100DC000130000287FF4D1AE0132CEE640F26D135D
:100DD000D21A60E78F42ACBF66464CF00106CEE700
:100DE0002DE9F04F85B0044603F02AF940F2B173C3
:100DF000844600209C4240F3938048F21F52A4F5A1
:100E0000EC61C5F2EB120D39A4F5C863A4F5F660E8
:100E100082FB0176013B82FB0458C91700F1FF39C0
:100E2000E517871EA1EB661182FB03024FF4C8761B
:100E3000C5EB6810C5EBE8184FEAA90940F26D153B
:100E400006FB1848642605FB0795DB1706FB1040D8
:100E5000C3EBE21369184AF2203942F2934B4FF484
:100E6000A34ACB18CDF80C80B8F1000F0CBF30218D
:100E7000002165460027C0F60009C9F2492BC0F2DF
:100E8000010A804604F00302009302910192CCF81B
:100E900004402B7A4A2B4BD0442B5DD0019A029E02
:100EA000002A40D0EC684E44012C59DD009A3146AE
:100EB0000123013351F8040BA3420244F9D1013B51
:100EC0009C00131D8BFB0310D917C018C1EBA001A8
:100ED0003059C1EBC101591A6B69591A2B6948BFC6
:100EE0000731013BC3EBC3035B18834202DB073BC3
:100EF0008342FCDAD318AC690137286A022F0AFB57
:100F00000343034445F81C3FC3D1DCF838300120CB
:100F1000DCF81C209A42ACBF00230123CCF800303F
:100F200005B0BDE8F08FB8F1000F18BF3026B9E763
:100F300069699DE805000B1842B9B8F1000F05D0AA
:100F40003B29D4BF00210121CB18D4E70398002806
:100F5000F6D00021CB18CEE76B690099CB18CAE711
:100F6000009A0024ADE700BF2DE9F84F04460D4676
:100F7000164603F065F8226844F207534FF4A34184
:100F8000CCF22E23C0F20101834683FB0203D0176B
:100F90009B18C0EB234301FB1322002A04DA02F55D
:100FA000A832013B02F5C0724BF2C5314FEAE2793B
:100FB000C9F2A21142F29348181DC9F2492881FBD7
:100FC00002A148F6890788FB00A88918C8F6880797
:100FD0004FEAE07CC9EBE1214FF46169A96009FBAC
:100FE000112208EB0001CCEBA101C1EBC10187FB91
:100FF00002C7411A4FEAE27C002907EB0200A9610F
:10100000CCEB60106860C0EB0010A2EB80022A609D
:10101000C0F29C80002B4AF2203C48F21F5040F264
:10102000B277C0F6000CC5F2EB104FF4C8794FF060
:10103000640A02DA4DE001379B1A80FB0728FA1791
:10104000B90707D1C2EB681801210AFB1878B8F17B
:10105000000F09D180FB0781C2EBE11109FB11717F
:10106000D1F1010138BF00210CEB8102126E9342D5
:10107000E1DA4800A7F5EC6241180C3AEB6109018E
:101080006A6100222A615CF801200CEB010893429E
:1010900008DB4046012129619B1A50F8042F0131D9
:1010A0009A42F8DD0133EB604EB3002328462B62F1
:1010B000BDE8F88F80FB0781C2EBE11109FB1171DC
:1010C000D1F1010138BF00210CEB8102126E9B1897
:1010D000CFD5013F17F0030F80FB07284FEAE772D7
:1010E000E8D1C2EB681801210AFB1878B8F1000FAB
:1010F000E0D00CEB8102126E9B18EAD4B9E701F044
:1011000037FE40F62063C2F200031B680BB3DBF826
:101110000430BB4205D03846FFF762FE002800F0DD
:10112000AD80DBF80030002B00F095802368DBF801
:101130001C209342C0F2AF80DBF83820934280F24B
:10114000AA800123DBF83C002B6205E00731A9618E
:1011500060E72E62DBF820004BF2C532C617C9F2F9
:10116000A21248F68904C8F68804696882FB00A7C1
:10117000AA68D5F800E03F18FF12BB1B4FF4616668
:10118000D21AAA6006FB130384FB03C0DE17C01843
:10119000C6EB6010091A6960C0EB0010A3EB800376
:1011A000C3EB0E032B603B2B2ADD01313C3B696016
:1011B0002B603B2948DD01323C39AA606960172A5F
:1011C00025DDAB69E9690133AB610131062BE961CA
:1011D00001DD0023AB612969183AEB68AA6001338D
:1011E000EB6058F82120934205DD01319B1A0C2950
:1011F0002961EB6046D001F0BDFD2846BDE8F88FBF
:10120000002BD6DA01393C3369602B60D1E7002A24
:10121000F1DAAB69E969013BAB610139002BE961A6
:101220003CDBEB681832AA60013BEB60002BE2D19B
:101230002B69013B2B61002B33DB9B0058F80330FB
:10124000EB6001F097FDD8E70029B8DA013A3C31AC
:10125000AA606960B3E72368DBF81C209342BFF6FD
:1012600070AFDBF838209342ACBF002301232B6220
:10127000002B3FF46FAFDBF83C006DE74FF0FF331E
:101280002B6267E76A6900232B610132EB616A61B7
:1012900001F070FDB1E700232B625BE70623AB6131
:1012A000BFE76B690B222A61013B6B619A0716D07D
:1012B000DA1748F21F51C5F2EB1181FB0361C2EB53
:1012C000E1124FF4C87101FB1233D3F1010238BFB0
:1012D000002202F5B67201322C23EA61AEE748F231
:1012E0001F51DA17C5F2EB1181FB03016420C2EB39
:1012F000611100FB11310029DBD04FF4B772EBE72D
:10130000704700BF704700BF0000000000000000F1
:101310000CB44FF4027370B59CB020AC0E46ADF81F
:10132000103001A954F8042B4FF0FF33ADF8123000
:101330006FF00045234601960596039506951B948C
:1013400000F0A6FA019B00221A701CB0BDE87040A4
:1013500002B070470EB440F60003F0B59CB021AC6B
:10136000C2F20003064601A954F8042B6FF00045B1
:1013700018684FF402772346019605964FF0FF3622
:10138000ADF81070ADF81260039506951B9400F04F
:101390007FFA019B00221A701CB0BDE8F04003B038
:1013A000704700BF000000000000000000000000C7
:1013B00040F60453C2F2000370B41D6810F8013BFC
:1013C000EC181A46647804F00304012C11F8014B60
:1013D00008BF03F120022E192346767806F0030693
:1013E000012E08BF04F12003D21A01D1002BE5D150
:1013F000104670BC704700BF0000000000000000F5
:10140000C9B2F0B4002946D0820710D00378002B6F
:101410006CD0994218BF024606D13AE012F8013F5B
:10142000002B63D0994234D001308307F6D1036892
:1014300041EA0127A3F1013247EA074722EA030202
:1014400012F0803F1CD17B40A3F1013222EA03035A
:1014500013F0803F14D1044602E012F0803F0FD118
:1014600054F8043F0430A3F1013687EA030226EA68
:101470000303A2F1013513F0803F25EA0202ECD00C
:10148000037823B932E043780130002B2ED0994203
:10149000F9D1F0BC704783070AD00378024623B91C
:1014A000F7E712F8013F002BF3D001308107F8D1A4
:1014B00003680246A3F1013121EA030313F0803FE0
:1014C0000AD1014651F8043F0432A3F1013020EA69
:1014D000030313F0803FF5D013781046002BD8D0CB
:1014E00012F8013F0130002BFAD1D2E71846D0E7BD
:1014F00080EA010212F0030F40F03A8010F003027C
:1015000020F0030021F0030150F804CB08BF51F88C
:10151000043B0DD082F003024FEAC2026FF07F431A
:1015200023FA02F251F8043B4CEA020C43EA0203AC
:10153000ACF101329C4501BF22EA0C0212F0803F5F
:1015400050F804CB51F8043BF2D04FEA0C604FEA5C
:101550001C2C012828BFB0EB036F08BF1B0AF4D076
:1015600003F0FF034FEA1060A0EB0300704700BFD9
:1015700010F0030F0AD010F8012B11F8013B012ADB
:1015800028BF9A42F4D0A2EB030070474DF8045DE7
:101590004DF8044D4FF0010242EA022242EA0242B3
:1015A00001F0030C21F0030150F8044B51F8045BE7
:1015B000BCF1020F26D04BD824F07F4CBCEB152F8A
:1015C000A4EB020323EA04030DD113EAC21308BFFC
:1015D00051F8045B0AD18CEA040CBCEB056F0CD10A
:1015E00050F8044BE8E74FEA15255CE033F07F4301
:1015F00052D10D784FEA146C55E04FEA146C05F0A7
:10160000FF0550E04FEA044CA4EB02034FEA1C4CE8
:1016100023EA0403BCEB154F17D113EAC21308BF2A
:1016200051F8045B07D18CEA040CBCEB054F08D1E0
:1016300050F8044BE6E71B042ED10D884FEA144CFA
:1016400031E04FEA05454FEA144C4FEA15452AE0D0
:1016500004F0FF0CBCEB156FA4EB020323EA0403B8
:101660000DD113EAC21308BF51F8045B0AD18CEA0A
:10167000040CBCEB052F0AD150F8044BE8E74FEA05
:10168000156510E014F0FF0F06D051F8045B4FEA27
:10169000142C25F07F4506E04FF000005DF8044B68
:1016A0005DF8045B70470CF0FF0205F0FF000128B5
:1016B00028BF904204BF4FEA1C2C2D0AF3D0A2EBA6
:1016C00000005DF8044B5DF8045B7047000000000B
:1016D000F0B40478CCB10E780746A6B10546B44202
:1016E00018BF0A4602D108E09C4206D012F8013F1A
:1016F000002BF9D1281AF0BC704717F8014F0135BB
:10170000002CECD1F6E73046F5E72046F3E700BFC2
:101710002DE9F04F40F60454C2F2000485B01F4694
:101720008C4626680B46039002921A4601331D46EA
:101730001478311991F801B01BF0080BF5D12D2C5C
:1017400073D02B2C04BF5478951CD7F1010338BFFC
:101750000023102F14BF1A4643F001023AB1302C77
:1017600073D023B10827302CB94601D00A27B946D7
:10177000BBF1000F49460CBF6FF0004A4FF0004A22
:10178000CDF804C0504604F0E1FB50468846494677
:1017900004F0AEFA33190022DDF804C05B7811467C
:1017A00013F0040F1ED0303CA74225DD814294BFC8
:1017B0000023012353EAD2722DD10A1A534243EB7C
:1017C00002034445D4BF002303F00103002B22D1C0
:1017D00009FB014115F8014B012233195B7813F025
:1017E000040FE0D113F0030306D0012B14BF5723DD
:1017F0003723E41AA742D9DC531C1BD00846BBF19F
:10180000000F10D1029B1BB152B90299C1F800C060
:1018100005B0BDE8F08F4FF0FF3215F8014BDCE763
:1018200005F1FF3CF1E74842ECE75478951C4FF096
:10183000010B8AE70399BBF1000F0CBF6FF000406A
:101840004FF0004022230B60DCE72A78A2F17800F9
:10185000414241EB0001582A14BF0A4641F00102FF
:10186000002A3FF47EAF10276C78B94602357FE737
:1018700030B440F60004C2F200040D46134601469F
:101880002A46206830BCFFF743BF00BF00000000BD
:101890002DE9F04FC9B08B4692461193109002F09B
:1018A00017FC00230022CDE91E2300681B9003F0E3
:1018B000BFF9BBF80C301B061C9004D5DBF81030C8
:1018C000002B01F0E8803DA946F267620991C6F25B
:1018D00066621D920DF1F301099A4AF6AC6000238D
:1018E00023AEC0F60000521A129308911993209368
:1018F0000D93189021923D963F933E939AF80030B5
:10190000B3F1250218BF0122002B0CBF002302F007
:101910000103002B00F0BD805246574612F8013FEC
:101920000137191C18BF0121252B0CBF002301F022
:101930000103002BF2D1B7EB0A0810D03E9C3F9D6B
:101940000134C6F800A0072CC6F8048045443E9434
:101950003F9500F3828008360D9B43440D933B78FE
:10196000002B00F08280002307F1010A0C93202550
:101970008DF81F312B217B784FF0FF3700200A9024
:101980000AF1010AA3F12002582A00F27082DFE86E
:1019900012F081026E026E028B026E026E026E0205
:1019A0006E026E026E02920282006E025D0087007D
:1019B0006E02A300AA00AA00AA00AA00AA00AA0018
:1019C000AA00AA00AA006E026E026E026E026E02E9
:1019D0006E026E026E026E026E02BD006F016E023A
:1019E0006F016E026E026E026E02AB016E026E023B
:1019F000B2016E026E026E026E026E02CF016E02C4
:101A00006E02DC016E026E026E026E026E026E02E9
:101A10006E026E026E026E02D002B7026F016F019B
:101A20006F01C902B7026E026E023A026E024C02E8
:101A30005902E00204026E020B026E029E026E0266
:101A40006E02FC020C9B11925B420C930A9840F0D0
:101A500004000A909AF8003092E7109859463DAA7F
:101A600003F016F940B923AE76E73F9B23B11098F7
:101A700059463DAA03F00CF9BBF80C3013F0400FA7
:101A80000D9B18BF4FF0FF330D930D9849B0BDE883
:101A9000F08F574663E78DF81F119AF800306FE713
:101AA000504610F8013B2A2B01F02C81A3F13002A3
:101AB0000027092A82463FF665AF002710F8013B50
:101AC00007EB870702EB4707A3F13002092A82469A
:101AD000F4D947EAE77755E70A9B43F080030A9376
:101AE0009AF800304CE750460022B446A3F1300685
:101AF00010F8013B02EB8202A3F130048246092C6C
:101B000006EB4202F2D966460C923BE70A9817931D
:101B100040F010000A900A998C0640F1F681119A63
:101B2000D31D23F0070303F108001190D3E900232C
:101B300014461D46002A73F10000C0F2D98554EA0C
:101B400005014FF001020CBF00230123002FA2BFAB
:101B50000A9820F080000A90002F18BF43F001037C
:101B6000002B00F05F83012A00F0C384022A1CBF0F
:101B70003DAAB44602D100F0A0BC3246E308E80812
:101B800043EA457304F0070105461C46561E01F161
:101B9000300354EA050102F8013CEED10A9813968D
:101BA0006646C00740F13884302B00F03584099B2D
:101BB000911E13915B1A0E93302302F8023C9DF89C
:101BC0001F3100220E991497B942B8BF39461A92B4
:101BD0000B9113B10B9A01320B920A9B13F0020383
:101BE000159302D00B9802300B900A9B13F08403DC
:101BF000169340F0E2810C980B99471A002F40F39E
:101C0000DC81102F4AF290383F9DC0F600083E9CC0
:101C100022DD23464FF010094446DDF8408002E003
:101C2000103F102F16DD013386E8100210350836FC
:101C3000072B3E933F95F3DD404659463DAA23AE20
:101C400003F026F800287FF417AF103F3F9D102FB8
:101C50003E9BE8DCA0461C460134C6F80080072CF9
:101C600077603D443E943F9500F356840836A5E1E5
:101C700011981793C31D23F0070303F10801119175
:101C8000D3F800805D684046424629462B46CDE9A0
:101C90001E2302F07DFF0128404640F037850023D7
:101CA0000022294604F0F4FE9DF81F3110B12D23C7
:101CB0008DF81F3103204AF6A4614AF6A0620B900A
:101CC000002014901798C0F60002C0F600014728C3
:101CD000D8BF114613910A99032200200E9221F0D9
:101CE00080011A900A9174E70A9840F008000A905F
:101CF0009AF8003044E60A99179341F010010A91CE
:101D00000A9B13F0200200F0A38011980022C31D4B
:101D100023F0070303F108011191D3E9004554EAC8
:101D200005030CBF0023012300218DF81F110DE7CF
:101D30000A99179341F010010A910A9A900640F10E
:101D4000CB8011980122C31DE2E70A9817934AF647
:101D5000B063C0F600031993830640F12081119906
:101D6000CB1D23F0070303F108021192D3E90045CC
:101D700054EA05010A9A0CBF002301231A4200F01D
:101D80000084179B42F002020A9202228DF81D3154
:101D900030238DF81C310123C6E70A9A42F0200255
:101DA0000A929AF80030EBE5119900248DF81F4152
:101DB000119A09681793151D1391002900F00287E5
:101DC000002F1398C0F2BE8621463A4602F098F9D9
:101DD000002800F02D87139A1494801A0E90B842B0
:101DE0001A94C5BF27EAE77311950E9B0B93D5BFD5
:101DF00023EAE3739DF81F310B930E97DCBF9DF828
:101E00001F311195E5E69AF8003052466C2B05BF5C
:101E10000AF1010A0A9B0A9843F0200315BF40F01B
:101E200010000A930A905378AAE50A98820640F1B6
:101E30009E8411990D9A0B6804311191D1171A6083
:101E400059605BE517930A9B13F020027FF45DAFA6
:101E50000A9810F0100300F0958411990B68043172
:101E600011911C46003318BF012300255CE717932E
:101E7000002B3FF4FAAD1798012333A90B930E936F
:101E800000238DF8CC008DF81F311391002314939B
:101E90001A93A2E69DF81F31002B40F056848DF86E
:101EA0001F519AF800306BE50A9A42F001020A923B
:101EB0009AF8003064E5119B11981B68021D002BF5
:101EC0000C93FFF6BFAD9AF80030119258E50A9ACC
:101ED000179390063FF535AF0A98C10600F1548379
:101EE0000A9A520640F15083119B002501221C885A
:101EF0000433119354EA05000CBF0023012313E7B8
:101F00000A9917938C063FF50AAE0A99C80640F164
:101F10004B84119A1368043211921C461A46DD173D
:101F20002B4607E60A9A42F040020A929AF80030DD
:101F300026E517930120119B0B90191D0E901A682E
:101F4000002311918DF81F3133AB8DF8CC20139302
:101F50009CE7119B0025119878210A9A1B68043090
:101F600042F0020211900A921C4630224AF6C460E6
:101F70005B1B8DF81C2118BF0123C0F600008DF8F3
:101F80001D11022219901791CEE60A984AF6C462F2
:101F90001793C0F60002830619923FF5E0AE0A9B44
:101FA000DD0600F1FD820A994C0640F1F982119A92
:101FB0000025148804321192DAE63F9D9DF81F3106
:101FC0006BB13E9C47AB0333336001340123072CD4
:101FD00073601D443E943F9500F3EF810836159BD6
:101FE00063B13E9C47AB3360022301347360072C1E
:101FF0001D443E943F9500F3EB810836169B802BE1
:1020000000F0248114980E9BC71A002F35DD102F85
:102010003E9CD8BFDFF8388A24DDDFF8348A2346B7
:102020004FF010094446DDF8408002E0103F102FC9
:1020300016DD013386E8100210350836072B3E9373
:102040003F95F3DD404659463DAA23AE02F020FEFF
:1020500000287FF411AD103F3F9D102F3E9BE8DC20
:10206000A0461C460134C6F80080072C77603D442A
:102070003E943F9500F3968108360A99CA0575D4B7
:102080003E9C0E9B01341398072C1D4486E80900E2
:102090003F953E945FDC08360A994B0740D50C9A71
:1020A0000B9BD71A002F3BDD102F4AF290383E9C35
:1020B000C0F6000822DD23464FF010094446DDF843
:1020C000408002E0103F102F16DD013386E8100239
:1020D00010350836072B3E933F95F3DD40465946B1
:1020E0003DAA23AE02F0D4FD00287FF4C5AC103F1A
:1020F0003F9D102F3E9BE8DCA0461C460134C6F8ED
:102100000080072C77603D443E943F9508DD109891
:1021100059463DAA02F0BCFD00287FF4ADAC3F9DBE
:102120000D980B9A0C998A42ACBF801840180D90FC
:10213000002D40F02981002323AE3E93FFF7DEBB44
:10214000A0461C460134C6F80080072C77603D4449
:102150003E943F959FDD109859463DAA02F098FDA8
:1021600000287FF489AC23AE3F9D95E71799652938
:1021700040F3A980DDE91E010022002304F07EFC6B
:10218000002800F04F813E9C4AF26C63C0F60003C9
:10219000336001340123072C73601D443E943F9546
:1021A00000F310830836449B129A9A4203DC0A9B80
:1021B000DB077FF571AF3E9C1C9801341B99072CFF
:1021C0000544706031603F953E9400F358840836B2
:1021D000129A571E002F7FF75FAF102F3E9C40F3DF
:1021E0006485DFF86C8823464FF010094446DDF81B
:1021F000408002E0103F102FA2DD013386E810027C
:1022000010350836072B3E933F95F3DD404659467F
:102210003DAA23AE02F03CFD00287FF42DAC3F9D8B
:102220003E9BE7E7002A40F0B9800A98C1075EBFED
:102230000E923DA813907FF5C2AC219930230DF189
:10224000F3028DF8F33013920E91B8E40C980B99C9
:10225000471A002F7FF7D6AE102F3E9CD8BFDFF86D
:10226000F08724DDDFF8E88723464FF01009444665
:10227000DDF8408002E0103F102F16DD013386E8C4
:10228000100210350836072B3E933F95F3DD40468C
:1022900059463DAA23AE02F0FBFC00287FF4ECABCC
:1022A000103F3F9D102F3E9BE8DCA0461C460134AA
:1022B000C6F80080072C77603D443E943F9500F3BC
:1022C0000C8208369EE6129B3E9C012B40F3D28185
:1022D0000134139901350123072C86E80A003F9544
:1022E0003E9400F3E281083601341C9B1B9A072CB4
:1022F0001D4486E80C003E943F9500F3E2810836C9
:10230000DDE91E010022002304F0B8FB002840F0A4
:102310000E81129801341399431E73601A464B1CA8
:10232000072C336015443E943F9521DC0836013478
:102330002098072C40AB0544336070603F953E9475
:102340007FF7A9AE109859463DAA02F0A1FC0028DB
:102350007FF492AB3F9D23AE9EE6A0461C4601341F
:10236000C6F80080072C77603D443E943F95DDDD44
:10237000109859463DAA02F08BFC00287FF47CABF4
:1023800023AE3F9D3E9CD2E7109859463DAA02F0ED
:102390007FFC00283FF4CFAEFFF76EBB0E933DAB42
:1023A00013930CE4109859463DAA02F071FC0028E2
:1023B0007FF462AB3F9D23AE5FE6109859463DAA7D
:1023C00002F066FC00287FF457AB3F9D23AE06E683
:1023D000109859463DAA02F05BFC00287FF44CABF4
:1023E0003F9D23AE0AE6204629460A22002304F038
:1023F0009FFB464620462946002308F1FF3802F19C
:1024000030040A22347004F093FB04460D4654EA6B
:102410000503E8D113964E460998139BC31A0E93F1
:10242000FFF7CDBB449F002F40F3D781129F1A992D
:10243000139A8F42A8BF0F46129B002F1A440E9288
:102440000BDD3E9CED19139B01347760072C336044
:102450003F953E9400F3848308361A9827EAE7777D
:10246000C71B002F40F3AE80102F3E9CD8BFDFF873
:10247000E08540F37081DFF8D88523464FF01009DE
:102480004446DDF8408003E0103F102F40F36181A7
:10249000013386E8100210350836072B3E933F952E
:1024A000F2DD404659463DAA23AE02F0F1FB00287A
:1024B0007FF4E2AA3F9D3E9BE6E7DDF864800DF1E4
:1024C000F302B44604F00F01230943EA05732E0911
:1024D00018F801001C4635461146013A54EA050336
:1024E0000870EFD1099B664613915B1A0E93FFF7B4
:1024F00066BB0A2C75F1000024BF0DF1F308B1464C
:10250000BFF471AF219930340DF1F3028DF8F3402F
:1025100013920E91FFF753BB109859463DAA02F053
:10252000B7FB00287FF4A8AA3F9D23AE46E5129A88
:10253000571E002F7FF7FBAE102FDFF814857FF7B3
:102540000EAF23464FF010094446DDF8408003E00B
:10255000103F102F7FF701AF013386E810021035CE
:102560000836072B3E933F95F2DD404659463DAA7B
:1025700023AE02F08DFB00287FF47EAA3F9D3E9B98
:10258000E6E70222FFF7D0BB119901220B68043164
:1025900011911C46003318BF01230025FFF7C4BB6F
:1025A000119800250368043011901C46FFF7E0BB2A
:1025B000109859463DAA02F06BFB00287FF45CAAF4
:1025C0003F9D23AE449B1299994245DC0A9AD1075C
:1025D00042D413981A99421812980E99C31A8F1A56
:1025E000BB42B8BF1F46002F0ADD3E9CED1932608A
:1025F00001347760072C3F953E9400F3D58208366E
:1026000027EAE777DF1B002F7FF746AD102F3E9CB0
:1026100040F34B83DFF8388423464FF010094446DB
:10262000DDF8408003E0103F102F7FF789AD0133C4
:1026300086E8100210350836072B3E933F95F2DDF1
:10264000404659463DAA23AE02F022FB00287FF403
:1026500013AA3F9D3E9BE6E73E9C1C9801341B99C4
:10266000072C0544706031603F953E9400F39082E2
:102670000836AEE70A98C2073FF52AAE139B01342D
:10268000013533600123072C73603F953E947FF73B
:102690004DAE109859463DAA02F0FAFA00287FF490
:1026A000EBA93F9D23AE3E9C41E6109859463DAABA
:1026B00002F0EEFA00287FF4DFA93F9D23AE3E9C96
:1026C00012E6109859463DAA02F0E2FA00287FF47B
:1026D000D3A93F9D23AE3E9C12E6109859463DAAD1
:1026E00002F0D6FA00287FF4C7A93F9D23AE89E403
:1026F000644265EB45052D2354EA05028DF81F3130
:102700000CBF002301230122FFF720BA294602F063
:102710003FFA002840F0BA8014904AF6A863179850
:10272000C0F60003189A03210B914728D8BF1A4618
:1027300014980A991392032221F080019DF81F3109
:102740000A910E921A90FFF744BA9AF80030FFF7F8
:1027500017B9A0461C460134C6F80080072C7760E4
:102760003D443E943F953FF723AF08362AE70A9A47
:10277000D3067FD511980D99036804301190196024
:10278000FFF7BCB80A9810F0400200F0638111997D
:1027900000251A460C880431119154EA05030CBF38
:1027A00000230123FFF7C0BA0A9B590640F15D815F
:1027B0001198B0F90040043011902246E5172B46DD
:1027C000FFF7B8B9109859463DAA02F061FA0028FF
:1027D0007FF452A93F9D23AEE5E43E9C4AF26C6330
:1027E000C0F60003336001340123072C73601D44DD
:1027F0003E943F9500F3678108362FB9129B1BB9B1
:102800000A98C0077FF548AC3E9C1C9901341B9A7E
:10281000072C0D44716032603F953E9400F31582A1
:1028200008367F42002F40F38081102FDFF820828E
:1028300040F3A38123464FF010094446DDF8408061
:1028400003E0103F102F40F39681013386E8100219
:1028500010350836072B3E933F95F2DD404659462A
:102860003DAA23AE02F014FA00287FF405A93F9D8B
:102870003E9BE6E70A9A570640F11D8111980D9993
:102880000368043011901980FFF738B87A1C00F003
:102890002681179AA2F1670CDCF1000343EB0C03CD
:1028A000472A08BF43F00103002B00F0CC81002F22
:1028B00000F0E98101230B930A98002D40F4807009
:1028C0000A90C0F2CF8100221492179BB946179844
:1028D000A3F1660EDEF1000343EB0E0315939C4655
:1028E0000323462808BF4CF0010CBCF1000F0ED1A9
:1028F000A0F16504634243EB0403452808BF43F09D
:102900000103002B00F0B38107F101090223CDF888
:10291000388044A90F9500931098DDE90E230291A9
:1029200045A9CDF81CC0039146A9CDF804900491A7
:1029300000F0F2FADDF81CC013901798B0F16703AD
:1029400018BF012347280CBF002303F0010323B95C
:102950000A99C90758BF469C15D5139A02EB09047A
:10296000BCF1000F05D01378302B00F0C680449BDB
:10297000E418404600220023294604F07FF800288E
:1029800000F049814694139B0B98E41A1294002896
:1029900000F027814499CA1C02DB8F4280F2288113
:1029A000179A023A179201391798002944918DF825
:1029B0000001C0F2A2812B238DF80131092940F3D7
:1029C000598143AD1D9F0335284687FB0132CB1744
:1029D0000446C3EBA20303EB8302A1EB42021946B8
:1029E0003032092B00F8012DEFDC224603F13001D3
:1029F00002F8021D954298BF0DF581710BD90DF5B6
:102A000081730DF5877001E012F8011F824203F80F
:102A1000011B1946F8D1129840ABCB1A209301281C
:102A200003440E9340F35E810E9B00201A90013305
:102A30000E9323EAE3710B91149B002B00F0E780C7
:102A4000002314932D238DF81F31FFF7C3B800BF67
:102A5000A0A3000811980368043011901C460033AD
:102A600018BF01230025FFF75FB911990B680431E6
:102A700011911C461A46DD172B46FFF75BB81098DC
:102A800059463DAA02F004F900287EF4F5AF3F9DB7
:102A900023AEFFF79DBB10984021FDF729FCCBF832
:102AA0000000CBF81000002800F050814023CBF844
:102AB0001430FEF708BF119A0D9813680432119272
:102AC0001860FEF71BBF109859463DAA02F0E0F8C7
:102AD00000287EF4D1AF449F23AE3F9D8DE6179929
:102AE000A1F16709D9F1000343EB09030627472940
:102AF00008BF43F001030B93DEE6404600220023AB
:102B0000294603F0BBFF00287FF431AFC9F1010370
:102B100044932DE7109859463DAA02F0B9F80028D1
:102B20007EF4AAAF3F9D23AE3E9C01341298139BC6
:102B3000072C0544706033603E943F957FF7ABAA45
:102B4000FFF709BB149402F073F8149C9DF81F3131
:102B500011951A940E9020EAE0700B90FFF739B8A7
:102B6000109859463DAA02F093F800287EF484AFED
:102B70003F9D23AE71E4A0461C460134C6F8008098
:102B8000072C77603D443E943F95C3DC0836CCE784
:102B9000109859463DAA02F07BF800287EF46CAFED
:102BA000449B23AE3F9D14E5109859463DAA02F080
:102BB0006FF800287EF460AF449B23AE129A3F9DCD
:102BC000D31A1DE5062F28BF06274AF6704327EAC9
:102BD000E770C0F600030E970B9011951393FFF763
:102BE00055B9179B652B64DD159A4499002A62D16B
:102BF000129A8A424ADC0A9BD8076BD54B1C672085
:102C000023EAE3720E9317900B921A9114E79DF842
:102C10001F31FEF7DEBF469B9C4298BF1C467FF6E5
:102C2000B2AE302203F8012BA3424693FAD1AAE6B2
:102C300027EAE77114900B919DF81F3111950E97BB
:102C40001A90FEF7C6BF0B9336E6109859463DAA78
:102C500002F01EF800287EF40FAF449F23AE3F9D84
:102C60003E9CDEE52D2105F1004514912DE6B94687
:102C700002234CE601F13002302341A98DF80231E4
:102C80008DF80321C7E601270B9715E60029129856
:102C9000D4BFC1F1020301231B1867220E9323EA5C
:102CA000E37317920B931A91C6E6DFF8C080FFF723
:102CB00049BA449977E600293BDD002F2FD10A9BC2
:102CC000DB072CD421EAE17066220B900E9117925B
:102CD0001A91B1E621EAE17067220B900E911792EA
:102CE0001A91A9E60A9911F001037FF49DAE0E9A9C
:102CF0001A9322EAE2720B929EE62D2349428DF846
:102D000001315BE6119A9AF8013082461768043265
:102D10001192002FB8BF4FF0FF37FEF731BE0137D9
:102D20006623CF19179327EAE7700E970B901A9135
:102D300082E617B90A9AD50710D50237662327EA23
:102D4000E7700E9717930B901A9175E610984FF055
:102D5000FF330D930C230360FEF797BE012066221C
:102D60000B9017920E901A9166E600BFA0A3000880
:102D7000704700BF704700BF000000000000000067
:102D8000F8B50C46054611462046164603F0F0F805
:102D900031460746204603F035FA002C05DB0029B2
:102DA0000BDB2F6028466960F8BD0029F9DD013F83
:102DB00089192F6028466960F8BD0137891B2F608B
:102DC00028466960F8BD00BF000000000000000058
:102DD0000A6903692DE9F04F9A4283B0804689461B
:102DE000009200F396800332009B01F114059200DB
:102DF0005C1E00F1140301938B1882181F1D596883
:102E00005068013102F074FF0646002842D00020CD
:102E1000019A2B46864653F804CB11681FFA8CFBA7
:102E20004FEA1C4C1FFA81FA06FB0B0BD64406FB3B
:102E30000CF000EB1B401FFA8BFBCBEB0E0A1FFACA
:102E400080FE000CCEEB114E9F420EEB2A4E1FFA75
:102E50008AFC4CEA0E414FEA2E4E42F8041BDAD2AD
:102E6000221D08EB82035968A1B9019898420FD23C
:102E700058F8222062B9009A911EC243D218A1EBE1
:102E8000920102E053F8042D12B9013C8C42F9D1B1
:102E9000C8F810404046494601F072FC002834DB77
:102EA000019B01364FF0000C55F8040B19681FFA0E
:102EB00080F9000C8AB2C0EB1141C9EB0202AF42AB
:102EC000944401EB2C421FFA8CFC4CEA02414FEA7D
:102ED000224C43F8041BE7D2221D08EB82035968F9
:102EE00099B9019898420ED258F822205AB9C14394
:102EF000C91821F00301591A02E053F8042D12B940
:102F0000013C8B42F9D1C8F81040304603B0BDE80F
:102F1000F08F0020FAE700BF2DE9F04F9FB0456A1F
:102F2000064692469B462B9C002D00F0E2822B68C1
:102F30005BB16A680125194605FA02F59D605A6081
:102F400001F0D4F9736A00221A60BBF10005C0F2E7
:102F5000E8800023236000231A46C7F6F073C7F603
:102F6000F0722B40934200F0C780002200235046AD
:102F70005946D046D946012403F080FD88B914F0A3
:102F8000FF0F12D12A9D4AF26C602C9C0123C0F6DF
:102F900000002B6014B1804B581E23601FB0BDE8A9
:102FA000F08F002414F0FF0FECD0304642464B4621
:102FB0001DA900911CA9019101F0ECFCC5F30A5474
:102FC0000C90002C40F0C5801C9F6FF482631D9C08
:102FD0003C199C42C0F2A7824FF60E4304F5826270
:102FE000CFF6FF7302321B1B2AFA02F205FA03F333
:102FF00043EA020003F05EFA013C012517950B46F7
:103000000246CDE90823099BA3F1F8730993002335
:103010000022C3F6F873DDE9080103F00DF958A3A7
:10302000D3E9002303F0BCFA57A3D3E9002303F04C
:1030300005F980462046894603F04CFA54A3D3E9AB
:10304000002303F0ADFA02460B464046494603F022
:10305000F5F88046894603F043FD494600220023E7
:103060000790404603F014FD50B1079803F032FA80
:1030700042464B4603F002FD10B9079D013D0795FE
:10308000079D162D00F265814AF2D0415246C0F6E6
:1030900000015B4601EBC501D1E9000103F016FD1B
:1030A000002800F03D82079D013D079500251595FC
:1030B0003C1B013C00F12F8200250B940E95079CD0
:1030C000002CC0F21F820B9D14942D1900240B9527
:1030D0001294289D092D61D8052D40F38D86043D5D
:1030E00028950025289CA31E032B59D8DFE813F050
:1030F000BB03A7036402B8032A9C4AF6EC6042F2C1
:103100000F73C0F600002360BAF1000F0FD02C9DA2
:10311000002D3FF443AFC378C3B9C31C2C9C23607C
:103120003CE725F000450123AB46236013E74AF650
:10313000E0624AF6EC63C5F31300C0F60002C0F685
:10314000000300280CBF10461846E0E700F1080312
:10315000E4E749464046CDE90801A4F57E740999A3
:103160000025073C1C9F21F07F43179523F4700333
:1031700043F07E5343F4E003099348E7AFF3008044
:1031800061436F63A787D23FB3C8608B288AC63F6D
:10319000FB799F501344D33F6DA600080024289468
:1031A000746A0023194630464FF0FF352993636057
:1031B00010950D9501F064F8736A01251395206050
:1031C0001B680F931D9B079DDC43E40F0E2DCCBFA6
:1031D000002404F00104002C00F0BE80299C4AF277
:1031E000D043C0F60003E50F0D9C002CCCBF00259A
:1031F00005F00105079C03EBC403D3E90001CDE909
:103200000401002D40F0BC8102460B465046594651
:1032100003F0F0FA0F9C03F063FC804603F05AF9C8
:10322000DDE9042303F0BCF90B460246594650463B
:1032300003F002F808F1300304F8013BA1461194B1
:103240000D9C012C82468B464BD000230022C4F2F9
:103250002403012403F0A4F90022002382468B46B4
:1032600003F00CFC00B12C4614F0FF0F00F02D8190
:103270000F9D0D98119C2B180A961F460DE003F028
:103280008FF90022002382468B4603F0F7FB00B142
:10329000002616F0FF0F00F0E984DDE90423504614
:1032A0005946012603F0A6FA03F01AFC804603F003
:1032B00011F9DDE9042308F1300503F071F9024644
:1032C0000B465046594602F0B7FF002304F8015B55
:1032D0000022BC42C4F22403A14682468B46CED1D2
:1032E0000A9E52465B465046594602F0A7FF0446E6
:1032F0000D462246DDE904012B4603F0C9FB60B907
:10330000DDE9040122462B4603F0B8FB002800F05B
:10331000DC8018F0010F00F0D880079D19F8014CEF
:103320001A954B46119A02E013F8024C013B392CD6
:10333000994640F0D3849342F6D1119D30231A9CD4
:1033400005F8013C2B4601340794312403F8014C65
:10335000BBE001251595ABE6139D002D40F0EB80F9
:10336000139B129C0E9D0893002D0B98D4BF002335
:1033700001230028D4BF002303F001034BB103460F
:103380000E99AB42A8BF2B46ED1AC91AC01A0E916E
:103390000B90129A002A1ADD139B002B00F0688410
:1033A000002C10DD08992246304601F03BF90C9ABA
:1033B00008903046089901F097F80C990746304676
:1033C00000F094FF0C971298021B40F074840121C6
:1033D000304601F07FF814990029044605DD2146A6
:1033E0003046149A01F01EF90446289A012A40F347
:1033F0003D82002714990123002940F0B6830B9ADF
:103400009B1813F01F0300F0FB82C3F12002042A73
:1034100040F3ED84C3F11C030E980B99ED18C0180E
:103420000E90C9180B910E99002905DD30460C99B4
:103430000E9A01F047F90C900B9A002A04DD214600
:10344000304601F03FF90446159B002B40F096836F
:1034500028980D990228D4BF002301230029CCBF4E
:10346000002303F00103002B00F04D82002940F0FF
:103470009C80214605220D9B304600F053FF0446F8
:103480000C98214601F07CF9002840F38E80079DBE
:103490003123DDF83C9001350795002509F8013B03
:1034A0002146304600F022FF089C74B12B1C18BF47
:1034B0000123A5420CBF002303F00103002B40F0C1
:1034C0009A823046089900F011FF30460C9900F0BE
:1034D0000DFF079D2A9C00226B1C2C9D89F8002063
:1034E0000F982360002D3FF459ADC5F800900F9858
:1034F00054E51020FCF7ECFE7062456085600560C5
:10350000C56022E5079C0E9D2D1B0E95654200248B
:1035100012951494DDE564420E9400240B94CEE5DC
:1035200000251595C4E54FF6EE32CFF6FF72121B5B
:103530000AFA02F05EE5289D012D40F3C6830D9D39
:103540006B1E129D9D42AFBFC3EB0504129D1293EB
:10355000C5EB0302BEBF149DAD1814950D9D002D43
:10356000C0F2C6830E9D0D9B0E9A30460121D218E3
:103570000E920B9AD2180B9200F0ACFF0890F3E673
:103580000D9D002D40F09E8300230022C4F2140301
:10359000DDE9040103F004F852465B4603F08CFABF
:1035A0000D9C089400283FF472AF299DDDF83C90F3
:1035B000ED430795002573E701241394299C002C03
:1035C00040F3FE8220460E2C8CBF002505F001053D
:1035D00010940D94746A00231728636009D901229E
:1035E00004235B00174603F1140101328142F8D92C
:1035F00067603046616800F043FE736A20601B68B4
:103600000F93002D3FF4DEAD079C52465B46CDE99B
:103610000823002C40F3138204F00F024AF2D04337
:10362000C0F60003241103EBC2030227E106D3E92D
:1036300000890ED54AF2C0535046C0F600035946E1
:1036400004F00F040327D3E9082303F0D3F88246DC
:103650008B468CB14AF2C055C0F60005E2074046E1
:10366000494606D5D5E90023013702F099FF804687
:10367000894608356410F1D15046594642464B46BA
:1036800003F0B8F882468B46159C002C00F00881A8
:103690000023504659460022C3F6F073012403F07C
:1036A000F7F900B900240D9D002DD4BF002404F0CB
:1036B0000104002C00F0F480109C002C40F3AA813F
:1036C00000230022C4F224035046594602F068FF4A
:1036D000079D013D1A958246781C8B4602F0FAFE42
:1036E00002460B465046594602F05AFF002300227C
:1036F000C4F21C0302F0A2FDDDF840C08046A1F137
:103700005079139D002D00F0C6814AF2D0430F9CE2
:10371000C0F60003002103EBCC030020C3F6E071E8
:10372000CDF80CC053E90223119403F063F84B4623
:10373000424602F081FDCDE918015946504603F09A
:10374000CFF9044602F0C6FE3034E4B202460B461E
:103750005046594602F070FD119D05F8014BA946EF
:10376000119582468B465246DDE918015B4603F00F
:10377000ADF9002840F02C83002152465B46002022
:10378000C3F6F07102F058FD02460B46DDE9180160
:1037900003F09CF9DDF80CC000287FF4C2ADBCF149
:1037A000010F40F337810F9C1B9604EB0C07119D12
:1037B0001697DDE9186710E000210020C3F6F071CC
:1037C00002F03AFD32463B4603F062F9002840F031
:1037D0008C82169CA54200F01C8100230022C4F2BA
:1037E00024033046394602F0DBFE00230022C4F2F7
:1037F000240306460F465046594602F0D1FE89463C
:10380000804603F06DF9044602F064FE3034E4B201
:1038100002460B464046494602F00EFD32463B4604
:1038200005F8014BA94682468B4603F031F9524612
:103830005B460028C0D01A9C1B9E079445E60024D6
:1038400013940798299C24181094601C002840F3B6
:10385000AD810E288CBF002505F001050D90B9E65D
:1038600001241394EDE700241394A7E6BAF1000FA6
:103870007FF4BFADCBF313035746002B7FF4BAADF3
:10388000C7F6F0730BEA03031F46002B3FF4B2ADFB
:103890000E9B01270B9801330E9301300B90A9E585
:1038A000384602F017FE52465B4602F079FE0023CE
:1038B0000022C4F21C0302F0C1FC0D9DA1F1507462
:1038C0008046A146002D40F0B58000230022C4F2BE
:1038D00014035046594602F0AFFC42462346824646
:1038E0008B4603F0F3F8002840F03C8142465046F6
:1038F000594604F1004303F0CBF8002800F08A8019
:103900000D9C089451E61398002800F05E81002D6C
:1039100005DD304608992A4600F0D4FE0890DDF80F
:103920002080002F40F00B820F9D01230B941F4637
:103930000C9C0AEA03000A95089D0E900B992046FC
:10394000FFF746FA29464FF0010B0890204600F099
:1039500017FF42460B998146304600F031FF089A26
:1039600030320C92C3688246002B3ED0304651461E
:1039700000F0BCFC289B5BEA030303D10E980028EF
:1039800000F01982B9F1000FC0F2B681289859EA07
:10399000000003D10E99002900F0AE81BBF1000FA9
:1039A00000F3F2810D980A9B0C9A874203F8012BD1
:1039B00099460A9300F0E28121460A22002330460C
:1039C00000F0B0FC454504462AD029460A220023CF
:1039D000304600F0A7FC41460A2200230137054685
:1039E000304600F09FFC8046A8E72046514600F094
:1039F000C7FE8346BAE73046294600F077FC60E50B
:103A00001C230E9AED180B98D2180E92C0180B902A
:103A100009E51B9EDDE9080182468B46FFF7D2BB14
:103A2000294630460A22002300F07CFC0137054677
:103A3000804683E7079CDDF834C01A9461E6079D51
:103A40006C42002C00F0108104F00F024AF2D043C7
:103A5000C0F60003504603EBC2035946D3E90023E6
:103A600002F09EFD241182468B4600F0FD804AF252
:103A7000C0550227C0F60005E3075046594606D553
:103A8000D5E90023013702F08BFD82468B460835CD
:103A90006410F1D1F8E50CF1FF354AF2D041C0F6DF
:103AA00000010F9C01EBC5014B464246CDF80CC00E
:103AB000D1E900011695119402F072FDCDE91801CB
:103AC0005946504603F00CF8044602F003FD0B463D
:103AD00002465946504602F0AFFB119D04F13003F7
:103AE00005F8013BA946DDF80CC01195BCF1010FAA
:103AF00082468B4621D00F9D6F1E2C4667440023C3
:103B00000022C4F2240302F04BFD8946804602F0F5
:103B1000E7FF054602F0DEFC303502460B46404624
:103B2000494602F089FB04F8015FBC42E7D1119CD1
:103B30008246169D8B4604EB050900230022C3F63E
:103B4000E073DDE9180102F079FB02460B465046AE
:103B5000594602F0BBFF002800F0928019F8014C92
:103B6000FFF7DFBB0D9C089491E4236904EB83030A
:103B7000186900F063FCC0F1200340E40C98214672
:103B800000F0FEFD0028BFF663AC0C9930460A2217
:103B9000002300F0C7FB13990C9007980138079099
:103BA000002940F01981109B0D9351E40E280D90CF
:103BB0008CBF00230123746A1D400023636018E555
:103BC000012310930D932993F5E7139DDDF834A09D
:103BD000DDF83080DDF83C9002E000F0A3FB804689
:103BE00021464046FFF7F4F80A220023414600F13F
:103BF000300709F8057001353046AA45EDDC0D9D0A
:103C0000DDF83C90CDF83080012DACBFA94409F11E
:103C100001091D4601220C99304600F053FD214652
:103C20000C9000F0ADFD002814DD19F8012C0F9860
:103C30004B46411C02E013F8022C013B392A9946FD
:103C400078D18B42F7D10798312301F8013C01303C
:103C5000079025E401D1FB07E7D44B46994613F8BA
:103C6000012D302AFAD01BE402270DE50A9E2CE430
:103C700030460C99129A00F0D5FC0C90FFF7A7BBC8
:103C80000021DDE918230020C3F6E07102F0D4FA28
:103C900002460B465046594602F0FAFE00283FF411
:103CA000B9AE4B469946013B19F8012C302AF9D0A0
:103CB0001A9C079409E430460C9900F0B3FC0C9070
:103CC000FFF785BB002408946FE4179C002C4ED0AE
:103CD00003F58663129C03330E9D45E41A9D01345F
:103CE00003F8014C0795FFF7F0BB1B9EFFF719BBCC
:103CF0000E980023451B37E4BBF1000F0C9F0C947A
:103D00000B9C0FDD01220C99304600F0DBFC2146B4
:103D10000C9000F035FD002856DD392F42D0089B6D
:103D200003F13107DDF82890CDF8208009F8017BF8
:103D3000FFF7B6BB013203F8012CFFF7B1BB089DBA
:103D40003046696800F09CFA089B03F10C010546B7
:103D50000898026905F10C000232920000F018FA8E
:103D600030462946012200F0ADFC8046DCE51C9B74
:103D7000129C0E9DC3F13603FFF7F6BB0C9FCDF8E6
:103D800020800C940B9C45E70C9F0C94392F0B9CC6
:103D900008D0DDF828900137CDF8208009F8017BA4
:103DA000FFF77EBBDDF828903923CDF820801A4636
:103DB00009F8013B3BE70C9F0C94392F0B9CF1D089
:103DC000B9F1000FABDCADE7ACD1FA07AAD5A4E797
:103DD0001A9D0795FFF779BB0A2230460899002300
:103DE00000F0A0FA109A0D920890FFF731BB3FF453
:103DF0001AABC3F13C0304E60125FFF773B900BF1A
:103E0000F8B540F6F404C2F200040F460546FDF78B
:103E100077FAA36828465E6826F0030606F57E63F7
:103E20000F33DF1B3F0B013F3F03B7F5805F07DB1D
:103E3000002105F0BDFAA3689B199842284603D0DB
:103E4000FDF760FA0020F8BD794205F0B1FA0130C3
:103E500010D040F6EC53A168C2F20003F61B2846CE
:103E600046F001061A684E60D71B1F60FDF74AFA3C
:103E70000120F8BD0021284605F09AFAA368C21A6D
:103E80000F2A0DDD40F6FC4440F6EC51C2F200046E
:103E9000C2F2000142F001025A602368C01A0860B1
:103EA0002846CDE7F8B50D460446002975D0FDF744
:103EB00027FA55F8046C40F6F400A5F10801C2F2A7
:103EC000000026F00103CA18D0F808C057689445CE
:103ED00027F003077ED016F0010657604DD000266C
:103EE000D5196D6815F0010F06D1DB199568002E04
:103EF00064D0D268EA60956043F00102CB504A601A
:103F0000002E35D1B3F5007F48D39E095A0A3836C2
:103F1000F500042A16D902F15B06F500142A11D91E
:103F20001E0B6E36F500542A0CD9DE0B7736F500E1
:103F3000B2F5AA7F06D940F25455AA4274D89E0C15
:103F40007C36F500401940F6F405C2F2000582689F
:103F5000824203D15FE09268904204D0556825F018
:103F60000305AB42F7D3D368CB608A60D160996018
:103F70002046BDE8F840FDF7C5B955F8085C00F1EA
:103F8000080C491B5B198D68654542D0D1F80CC0FF
:103F9000C5F80CC0CCF80850A2E7F8BDDB08012535
:103FA000466800EBC3029B1005FA03F3CA609568EC
:103FB000334343608D60E9609160D9E71C4FBD4297
:103FC00097D1416143F001020161CD608D604A608B
:103FD000CB50CDE7F2073B4407D455F8082C891A9B
:103FE0009B188D68CA68EA60956040F6005243F0FD
:103FF0000105C2F200024D60816012689342B7D39E
:1040000040F6E8532046C2F200031968FFF7F8FEB5
:10401000AEE7012664E701276868B610134607FA81
:1040200006F6304368609FE74FF47C757E2689E78B
:10403000FC0800200000000000000000000000005C
:1040400040F60850C2F20000704700BF00000000B8
:1040500010B514463AB14AF6F0611046C0F60001B8
:10406000FDF746FA20B94AF69060C0F6000010BD90
:104070004AF690612046C0F60001FDF739FA20B9F2
:104080004AF69060C0F6000010BD4AF66C4120462A
:10409000C0F60001FDF72CFA4AF69063C0F6000363
:1040A00000280CBF1846002010BD00BF40F6485045
:1040B000C2F20000704700BF40F64853C2F200034E
:1040C000186A7047004870476C0D00200020704748
:1040D000004870478C0D002040F600030A46C2F2EB
:1040E000000301461868FFF7B3BF00BF00487047E0
:1040F0008C0D002000000000000000000000000007
:104100008307C9B270B412D0002A3BD003788B4227
:1041100025D00346013A06E012F1FF321ED313F810
:10412000014F8C421BD0013010F0030FF4D1032A51
:1041300084BF41EA012646EA064612D8002A21D069
:1041400003788B420BD0431C821803E013F8014B19
:104150008C4204D0934200F10100F7D1002070BCE2
:1041600070470446043023687340A3F1013525EA03
:10417000030313F0803F03D1043A032AF1D8DDE7AB
:104180002046DBE71046EAE70000000000000000E0
:10419000032A2DE9F00109D82AB10023CC5CC454CC
:1041A00001339342FAD1BDE8F0017047850702441C
:1041B000034605D011F8014B03F8014B9C07F9D1D8
:1041C00011F0030542D0D41A6E42032C8F5912DD30
:1041D000C5F1040CED004FEACC0C043127FA05F8C8
:1041E0008C59274604FA0CF444EA080443F8044BBB
:1041F000D41A032CF1DC9A42D5D900228D5C9D544F
:104200000132A242FAD1CEE70C681C604C685C60B7
:104210008C689C60CC68DC600C691C614C695C61DA
:104220008C699C61CC69DC610C6A1C624C6A5C62C2
:104230008C6A9C62CC6ADC620C6B1C634C6B5C63AA
:104240008C6B9C63CC6B4031DC634033D41A3F2CC5
:10425000DADC0AE00C681C604C685C608C689C606E
:10426000CC681031DC601033D41A0F2CF2DC04E07F
:1042700051F8044B43F8044BD41A032CF8DCBAE78A
:1042800070B50646446A0D465CB1E3689BB153F8CD
:104290002500E0B1026843F8252000230361C360D4
:1042A00070BD1020FCF714F80023044670624360D0
:1042B00083600360C36030460421212201F098FA34
:1042C000736AE060DB68002BE1D1184670BD012401
:1042D0003046214604FA05F4621D920001F088FA86
:1042E0000028F3D045608460D7E700BF30B50446AE
:1042F000456A83B055B139B1636A4A68DB6853F8DF
:104300002200086043F8221003B030BD1020019154
:10431000FBF7DEFF01996062456085600560C5605E
:10432000E9E700BF2DE9F0410C4605460E6901F1B1
:10433000140082B00021076801311FFA87FC3F0C8E
:1043400002FB0C3302FB07F707EB13471FFA83FC52
:104350003B0C8E424FEA074808EB0C0740F8047B01
:10436000E9DC3BB1A268964208DA04EB860201362A
:1043700026615361204602B0BDE8F081616828469D
:1043800001930131FFF77CFF226904F10C01023235
:10439000920007460C30FFF7FBFE214628463C46BC
:1043A000FFF7A4FF019BE0E72DE9F84348F63964E5
:1043B0001E46C3F6E304083388460546174684FBC9
:1043C0000314DB170021C3EB6403012B05DD01227D
:1043D0000021520001319342FBDC2846FFF750FFD9
:1043E000089B43610123092F0146036121DD08F188
:1043F0000909092418F804300A2228460134303B00
:10440000FFF790FFBC420146F4D109EB0408A8F184
:104410000808A6420ADD18F8013B0A2228460134A2
:10442000303BFFF77FFFB4420146F4D10846BDE8B8
:10443000F88308F10A080924EBE700BF03460020CF
:104440001A0C01D11B04102013F07F4F01D108304A
:104450001B0213F0704F01D104301B0113F0404FC9
:1044600001D102309B00002B02DB5B0001D4202035
:1044700070470130704700BF0368024613F0070021
:1044800007D0D9071FD498071FD49B0802201360B8
:10449000704799B209B91B0C102013F0FF0F01D11E
:1044A00008301B0A190701D104301B09990701D1F3
:1044B00002309B08D90704D45B0801D12020704743
:1044C000013013607047002070475B0801201360C3
:1044D000704700BF10B50C460121FFF7D1FE012245
:1044E0004461026110BD00BF2DE9F04F92460D6995
:1044F0000C46166987B0B542BFBF54462A463546BA
:104500001646A368B8BF8A4605EB060B61689B4553
:10451000C8BF0131FFF7B4FE0BF10401059100EBB8
:10452000810300F11409043303909945049306D2E2
:1045300004994B46002243F8042B9942FBD80AEB1E
:1045400086060AF1140A143604EB85051434B245C4
:10455000019605F1140802944AD25AF8045BACB2F1
:10456000ECB1029A4B46002518681F4652F8041B0E
:1045700086B2000C76191FFA81FC090C04FB0C664C
:1045800004FB010000EB1645B6B246EA05462D0CC9
:10459000904543F8046BE7D87D605AF8045C2D0C15
:1045A00021D0D9F80010CC46029B4E460846002781
:1045B00000E016461C8807EB1047324689B205FB1F
:1045C000047741EA074142F8041B53F8041B5CF8E6
:1045D000040F090C84B205FB014101EB17410F0CDC
:1045E0009845E6D87160019A09F104095245B4D89A
:1045F000BBF1000F0EDD0599039A52F821304BB93B
:1046000004995A460B1F02E053F8041D09B9013AF8
:10461000FAD19346039A1046C2F810B007B0BDE82D
:10462000F08F00BF12F003032DE9F0411546044658
:10463000884627D1AD1019D0666A002E2ED0B768F3
:104640002FB935E06D1011D03E6896B13746E807B6
:10465000F8D541463A462046FFF746FF4146064612
:104660002046FFF743FE6D10B046EDD14046BDE851
:10467000F08139463A462046FFF736FF3860074654
:104680000660E4E74AF2C0425E1EC0F60002002364
:1046900052F82620FFF746FE8046CBE71020FBF7B6
:1046A00017FE002306466062436083600360C360B8
:1046B000204640F27121FFF70DFF0023B06007464E
:1046C0000360C4E72DE9F04790460A690C464FEABB
:1046D00068168B6806EB020A81460AF101054968F3
:1046E0009D4203DD5B0001319D42FBDC4846FFF744
:1046F000C7FD002E074600F1140309DD0022114614
:10470000013243F8041BB242FAD107EB820314339F
:10471000266904F1140204EB8606143618F01F080B
:1047200020D0C8F1200E002000E00B46D2F800C0D7
:1047300019460CFA08FC4CEA000041F8040B52F848
:10474000040B964220FA0EF0EFD8586008B10AF137
:1047500002054846013D21463D61FFF7C7FD384649
:10476000BDE8F08752F8041B964243F8041BF0D9C9
:1047700052F8041B964243F8041BF3D8E9E700BF44
:1047800003460A69006930B4801A10D1043203F17B
:10479000140592009B1889180433043153F8044C13
:1047A000043B51F8042D944203D19D42F6D330BC12
:1047B000704738BF4FF0FF30F9D30120F7E700BF53
:1047C0002DE9F84F0C460646114620461546FFF7E0
:1047D000D7FF071E5BD055DB002730466168FFF727
:1047E0004FFDD4F810802B6904F1140C05F1140965
:1047F000002604EB880405EB83051434143500F11E
:10480000140AC7605CF8047B534659F804AB62464F
:10481000B9B289191FFA8AFBCBEB01014FEA1A469C
:10482000C6EB174606EB214689B241EA064136142B
:104830004D4543F8041B9A46E4D864451F4615D9F4
:1048400052F8045BA9B22D0C8E1905EB2645B6B2C1
:1048500046EA05412E14944243F8041BF0D86FEA4F
:104860000C031B1923F003030433FB1831B9043B79
:1048700053F8042D08F1FF38002AF9D0C0F8108051
:10488000BDE8F88F234601272C461D46A5E7304694
:104890003946FFF7F5FC012347610361BDE8F88F56
:1048A0000023C7F6F0730B40A3F15073002B02DD19
:1048B0001946002070475B4200211B15132B0BDDAE
:1048C000322B02DD0123184670470122C3F1330366
:1048D00002FA03F3184670474FF40022002042FA10
:1048E00003F170472DE9F04100F1140604690F4609
:1048F000043450F8245000EB8404A0462846FFF707
:104900009DFD0A28C0F120033B6018DCA642C0F1DF
:104910000B0125FA01F738BF54F8044C47F07E57D5
:1049200047F4E00334BF24FA01F10021153005FA01
:1049300000F541EA050210461946BDE8F081002164
:10494000A64202D258F8041C043CB0F10B0702BF87
:1049500045F07E550A4645F4E003ECD0B44205FA32
:1049600007F5C0F12B0045F07E5588BF54F8044C84
:1049700021FA00FC45F4E00501FA07F145EA0C03D1
:104980008CBF24FA00F0002040EA010219461046CC
:10499000BDE8F0812DE9F04383B001211D461446A6
:1049A0000A9F0B9EFFF76CFCC5F30A5925F07F4365
:1049B00023F4700301938046B9F1000F02D043F451
:1049C00080130193002C26D002A840F8084D6846B9
:1049D000FFF752FD019B002835D1009AC8F814203A
:1049E000002B0CBF01240224C8F81830C8F810406E
:1049F000B9F1000F1DD108EB8403A0F586600238E1
:104A0000386018696401FFF719FD241A34604046C4
:104A100003B0BDE8F08301A8FFF72EFD01231C467B
:104A2000C8F81030019BC8F814302030B9F1000FDD
:104A3000E1D0A9F58669C0F13503A9F1030948441D
:104A400038603360E3E7C0F12002009903FA02F214
:104A500023FA00F30A430193C8F81420C0E700BF0B
:104A60002DE9F04F83B00C4669460546FFF73AFF43
:104A700006460F46204601A9FFF734FF0B460246C3
:104A800029692069009C091A01984901201A4118D6
:104A90000029DCBFA3EB01510B4603DD090501EB47
:104AA00007094F463046394601F0A4FE03B0BDE881
:104AB000F08F00BF172810B504460CDD0021002040
:104AC000C3F6F07100230022C4F2240301F068FD54
:104AD000013CF7D110BD4AF2C043C0F6000303EB1E
:104AE000C003D3E9040110BD70B40139166902F1A5
:104AF00014034911013102EB8606143600EB8101E3
:104B0000B3420CD2044653F8045B9E4244F8045B63
:104B1000F9D8B31A153B23F003030433C0188142BC
:104B200004D9002340F8043B8142FBD870BC704795
:104B300002694B1110B49A4201DB1A4618DC0432A8
:104B400000F1140100EB82031C1DA1421DD250F89C
:104B5000222052B9591A033121F00301591A8B420C
:104B600013D053F8042D002AF9D0012010BC70474F
:104B700011F01F01E3D000EB83035B6923FA01F41A
:104B800004FA01F19942F0D1D9E70020EEE700BF25
:104B90000B4650EA030110B402D1022010BC70474A
:104BA000D0F1010238BF0022B3F1004F14BF002141
:104BB00002F001010029F0D14FF6FF71A3F580103A
:104BC000C7F6DF7103F1FE44884204F570048CBF20
:104BD000002001208C428CBF014640F0010109B148
:104BE0000420DBE7B3F5801F03F100412CBF002058
:104BF0000120B1F5801F2CBF014640F0010109B131
:104C00000320CBE713F5801FC7F6F07114BF002017
:104C100001208B4214BF034640F0010302EA030067
:104C2000BCE700BF00000000000000000000000022
:104C300020F0030110F00300C0F1000051F8043B24
:104C400000F1040C4FEACC0C6FF000021CBF22FAFA
:104C50000CF213434FF0010C4CEA0C2C4CEA0C4CB8
:104C6000A3EB0C0222EA030212EACC1204BF51F8B1
:104C7000043B0430F4D013F0FF0F1FBF013013F4D6
:104C80007F4F013013F47F0F18BF0130704700BF12
:104C90002DE9F04F85B09468914603900D46176852
:104CA000002C7DD04FF0000A08688B685446002C19
:104CB00051D09C421E4698463CBF2646A0463AD359
:104CC000B5F80CE01EF4906F35D06B69621C296951
:104CD00003EB430B431AD0180BEBDB7B4FEA6B0B58
:104CE00083455A463CBF834602461EF4806F0398B4
:104CF00036D011460193FBF7FBFA019B00283AD00E
:104D000029691A4601930290FFF742FAAA89019B8A
:104D1000DDF808C022F4906242F08002AA812646A3
:104D2000A0460CEB0300C5F810C0C3EB0B032860D2
:104D3000C5F814B0AB604246514600F089FDD9F881
:104D40000820AB682868141B9B1BAB60404428609C
:104D5000C9F80840F4B1D7F800A07C680837A6E786
:104D6000019300F0D5FD019B84460028D7D103981C
:104D70002969FFF797F8039A0C234FF0FF3013606F
:104D80000023AA8942F04002AA81C9F80830C9F874
:104D9000043002E02046C9F8044005B0BDE8F08FB9
:104DA00054602046F9E700BF2DE9F04FADB08946C9
:104DB00007938B8902901B0603D50B69002B00F02B
:104DC000DB8415460DF19F060DF1A00A0023019624
:104DD0000EACC6EB0A06089305930D9628942A9309
:104DE00029932B78B3F1250218BF0122002B0CBFA9
:104DF000002302F00103002B00F06D832A462E46AB
:104E000012F8013F0136191C18BF0121252B0CBFD8
:104E1000002301F00103002BF2D1771B0ED0299B58
:104E20002A9A013384E8A000072B3A4429932A9256
:104E300000F3AE8308340598C01905903378002B31
:104E400000F04B8300227378751C4FF0FF389346B7
:104E5000002106928DF8AF100135A3F120015829E9
:104E600000F24D82DFE811F090014B024B028C0101
:104E70004B024B024B024B024B024B02FF00AB01B9
:104E80004B020C01AE014B02A7019601960196015F
:104E90009601960196019601960196014B024B02EE
:104EA0004B024B024B024B024B024B024B024B029A
:104EB00059004B024B024B024B024B024B024B027E
:104EC0004B024B024B02F5004B024B024B024B02D2
:104ED0004B02BE004B024B0265014B024B024B02E0
:104EE0004B024B024B024B024B024B024B02100196
:104EF0005B004B024B024B0219025B004B024B0260
:104F00000C024B021D02F700D101CD014B02E90159
:104F10004B02C0004B024B0232024BF0100B1BF055
:104F2000200F8DF8AF2000F07A83079EF31D23F049
:104F3000070303F108060796D3E9002316461F4628
:104F4000002A73F10000C0F2C78356EA07014FF050
:104F500001030CBF00220122B8F1000FA8BF2BF003
:104F6000800BB8F1000F18BF42F00102002A5DD09B
:104F7000012B00F0D481022B1CBF5246AC4601D15C
:104F800032E32A46F308F80843EA477306F00701BC
:104F900007461E46551E56EA070001F1300302F887
:104FA000013CEED11BF0010F0A95654600F0DE8151
:104FB000302B00F0F083931E0A93C3EB0A063023D4
:104FC000049602F8023CCDF82480049E09989DF8CE
:104FD000AF308642B8BF06460396002B66D0013636
:104FE000039663E04BF0100B1BF0200F00F03A83A8
:104FF000079E0123F21D22F0070202F10806079620
:10500000D2E9006756EA07000CBF00220122002106
:10501000B8F1000FA8BF2BF0800BB8F1000F18BF3C
:1050200042F001028DF8AF10002AA1D1002B40F010
:10503000AB821BF0010F04BF0493CDF828A0C2D0AF
:105040000D9E30238DF89F300DF19F030A93049637
:10505000B9E74BF0100B1BF0200300F0F182079E24
:105060000023F21DC7E7079E36680696079E301D8F
:10507000069E002E80F20C83069E079076420696CE
:105080004BF0040B2B78E7E6079B012603960020E4
:10509000079E1B6804368DF8AF00079601268DF831
:1050A000783004961EAE0A96002309931BF0020383
:1050B0000B9302D0039E023603961BF084030C93DD
:1050C00040F059810698039BC61A002E40F3538185
:1050D000102E4AF2F0572A9AC0F60007299BC8BF43
:1050E0004FF0100803DC19E0103E102E16DD0133DE
:1050F000103284E880010834072B29932A92F3DDCB
:105100000298494652460EACFFF7C2FD002840F017
:10511000EB81103E2A9A102E299BE8DC013392196C
:10512000072B2760666029932A9200F3A582083432
:1051300023E11BF0200F4AF6B066C0F600068DF89A
:10514000AF20089600F0CD80079EF21D22F00702E6
:1051500002F108060796D2E9006756EA07000CBF7D
:10516000002201221BEA020F00F068828DF8AD30A8
:105170004BF0020B302301228DF8AC30022346E7BE
:105180004BF0010B2B7867E62B78002A7FF464AE96
:10519000202261E628460021A3F1300710F8013BE8
:1051A00001EB8101A3F130060546092E07EB410111
:1051B000F2D9069151E64BF0800B2B784CE62B7818
:1051C0002B2249E6294611F8013B2A2B00F0FB82ED
:1051D000A3F13000092884BF0D464FF000083FF6C8
:1051E0003CAE4FF0000811F8013B08EB880800EBDB
:1051F0004808A3F1300009280D46F4D948EAE878B8
:105200002BE64BF0200B2B7826E6079B00274AF66F
:10521000C4604BF0020B1E1D07961A6830238DF8F0
:10522000AC3078231646D21B8DF8AD3018BF012262
:10523000C0F6000002230890E9E6079B0021079EC4
:105240008DF8AF101B68043607960A93002B00F008
:10525000A782B8F1000F0A98C0F27182002142467D
:10526000FEF74EFF002800F0AA820A9E801B0490E1
:10527000404540F37E820023CDF810800993A4E6D8
:105280002B7829466C2B18BF4BF0100B7FF4E4AD44
:1052900001354BF0200B4B78DEE54BF0400B2B78C3
:1052A000DAE51BF0200F8DF8AF2040F03E821BF0B6
:1052B000100F40F04A821BF0400F00F04682079E1C
:1052C000336804360796059E1E808AE51BF0200F82
:1052D0004AF6C466C0F600068DF8AF2008967FF443
:1052E00033AF1BF0100F40F004821BF0400F00F0B2
:1052F0000082079800270688043007902DE78DF874
:10530000AF20002B00F0E98001268DF878300020D6
:105310001EAB03968DF8AF0004960A93C4E60A2EDE
:1053200077F10000C0F0C2810DF19F030395CDF825
:1053300010B01D46A346304639460A22002301F02C
:10534000F7FB2C46304639460023013D02F130067A
:105350000A22267001F0ECFB06460F4656EA0700CB
:10536000E9D10A945C46039DDDF810B00A9BC3EBBB
:105370000A03049327E62A9A299B9DF8AF1061B18E
:1053800001330DF1AF0121600121072B0A44616057
:1053900029932A9200F3108108340B9E5EB10133E9
:1053A0002BA921600221072B0A44616029932A92CC
:1053B00000F30D8108340C9E802E00F0A280099924
:1053C00004980E1A002E29DD102E864FC8BF4FF00C
:1053D000100803DC18E0103E102E15DD01331032EA
:1053E00084E880010834072B29932A92F3DD029880
:1053F000494652460EACFFF74BFC002874D1103ED4
:105400002A9A102E299BE9DC01339219072B276079
:10541000666029932A9200F3C48008340A9E0133FF
:10542000072B2993D8BF04F108012660049E32445B
:105430002A92666000F396801BF0040F31D0069824
:10544000039BC61A002E2CDD102E4AF2F057299B22
:10545000C0F600071CDD1024DDF8088002E0103ED5
:10546000102E15DD013310320F604C600831072B10
:1054700029932A92F3DD494640465246FFF708FC3D
:105480000EA9002830D1103E2A9A102E299BE9DC63
:105490000133B218072B0F604E6029932A9200F354
:1054A000FB80059E039B06988342ACBFF618361816
:1054B0000596002A60D12B7800260EAC2996B3F110
:1054C000250218BF0122002B0CBF002302F00103AC
:1054D000002B7FF493AC2E46B0E42A9B23B10298B4
:1054E000494628AAFFF7D4FBB9F80C30059E13F003
:1054F000400F18BF4FF0FF36059605982DB0BDE858
:10550000F08F06980399461A002E7FF758AF102E99
:10551000344FC8BF4FF0100803DC18E0103E102EC7
:1055200015DD0133103284E880010834072B2993FC
:105530002A92F3DD0298494652460EACFFF7A8FBCB
:105540000028D1D1103E2A9A102E299BE9DC013384
:105550009219072B2760666029932A9200F3FD8039
:1055600008342CE7029849465246FFF791FB002881
:10557000BAD12A9A0EA95FE7029849465246FFF728
:1055800087FB002897D0AFE70492CDF828A01AE552
:10559000029849465246FFF77BFB0028A4D10EAC87
:1055A00049E4029849465246FFF772FB00289BD116
:1055B0002A9A0EAC299B31E7029849465246FFF7DA
:1055C00067FB002890D12A9A0EAC299BE5E6029849
:1055D00049465246FFF75CFB002885D12A9A0EAC5B
:1055E000299BE8E600A60008AC460DF19F01254680
:1055F00006F00F023309089E43EA07733C09274669
:10560000B05C0A461E460139107056EA0700EFD119
:105610002C46C2EB0A030A9265460493D3E41BF0BE
:10562000100F4CD11BF0400F49D00798B0F9006023
:10563000043007903246F7173B4681E40223E6E444
:105640001BF0100267D11BF0400364D0079813468B
:1056500006880027043056EA070107900CBF002295
:105660000122D4E41BF0100F4AD11BF0400F47D0A9
:10567000079801230688ECE7029849465246FFF74F
:1056800007FB00287FF430AF2A9A0EAC299B74E602
:105690002B780790FFF7E0BB029849465246FFF788
:1056A000F7FA00287FF420AF2A9AFAE60D993036EF
:1056B0000DF19F038DF89F600A93049183E4079E88
:1056C0003368043607961A461E46DF173B46002A03
:1056D00073F10000BFF639AC764267EB47072D2324
:1056E00056EA07028DF8AF300CBF002201220123D9
:1056F00032E4079E002732680436079616462CE5EA
:10570000079E01233268043607961646003218BFFA
:10571000012200277BE4079E32680436079616466E
:10572000003218BF0122002771E4079E059A3368F2
:105730000436D11707961A605960FFF752BB002351
:105740000993FFF775FA04903FE4079E3368043627
:105750000796059E1E60FFF744BB029849465246D5
:10576000FFF796FA00287FF4BFAE2A9A0EAC299B69
:1057700025E60026099628E440210092FAF7B8FDB4
:10578000009AC9F80000C9F8100050B34023C9F8C6
:105790001430FFF716BB0A9EC6EB0A06049612E405
:1057A000B8F1060F34BF434606234AF67046049309
:1057B000C0F6000623EAE3730A96039374E4CDF877
:1057C0001080099001E4079E6B780D46301D07900C
:1057D000D6F80080B8F1000FB8BF4FF0FF38FFF7E0
:1057E0003BBB4FF0FF360596029E0C23336084E6E8
:1057F00010B501FB02F1FAF77BFD044608B350F83F
:10580000042C22F00302043A242A1CD8132A98BF3D
:10581000024612D900231B2A036098BF00F1080238
:1058200043600AD9242A836014BF00F1100200F1FA
:105830001802C36004BF0361436100231360536017
:105840009360204610BD0021FBF712F8204610BDE2
:105850008842F0B412D98D18A8420FD262B1134613
:10586000821859426D185218EC18D118013B14F8DF
:10587000014C01F8014CF7D1F0BC70470F2A98BFDA
:10588000034637D940EA01039B073DD1A2F1100737
:1058900001F110060B4604463F0906EB07161D688A
:1058A00025605D6865609D68A560DD681033E56012
:1058B00010349E42F3D17C1C02F00F022401032A13
:1058C00000EB0403214415D9A2F1040C0D461C463B
:1058D0004FEA9C0C03EB8C07043755F8046B44F833
:1058E000046BBC42F9D10CF1010402F00302A400E4
:1058F00009191B19002ABFD08A1811F8014B9142CF
:1059000003F8014BF9D1B7E70346F5E700000000C3
:105910002DE9F04F0C4683B007469046002900F071
:10592000208108F10B05FBF7EBFC162D54F8041C45
:1059300000F29380102200261546454538BF46F0F8
:105940000106002E40F0138121F0030AA4F1080B98
:105950009245A8BF56466ADA40F6F4090BEB0A00F6
:10596000C2F20009D9F808C0844500F005814368F7
:1059700023F0010E8644DEF804E01EF0010F1CBF88
:10598000B64630466ED0CB0700F18C8054F8083C08
:10599000C3EB0B03596821F00301002800F0AA8033
:1059A000604501EB0A0C00F03B810EEB0C06B242A5
:1059B00000F3A280C1689E468068AAF10402242AEE
:1059C000C1608860D9685EF8080FC160886000F225
:1059D0007981132A9CBF724621461FD921681B2A50
:1059E00098BF03F1100299606168D96098BF04F113
:1059F000080113D9A168242A14BF03F1180203F186
:105A000020021961E168596111BF04F11001206998
:105A100004F11801986104BF6069D8610868744690
:105A200010609B4648685060896891605968721B95
:105A30000F2A22D80BEB060301F001010E43CBF82D
:105A400004605A6842F001025A603846A046FBF7EB
:105A500059FC404603B0BDE8F08F25F007052A4603
:105A6000EE0F6AE723F0030E0EEB0A06B2428ADC61
:105A7000C3688268D3609A60D9E70BEB050601F032
:105A80000101B3180D4342F00102CBF804507260DB
:105A900038465A6806F1080142F001025A60FEF7E2
:105AA00001FAD2E741463846FAF722FC8046E8B1CF
:105AB00054F8041CA0F1080221F001035B449A424F
:105AC00000F0FA80AAF10402242A00F2A580132A29
:105AD0009CBF0346224670D811681960516859600E
